:100000000A128A11FA2F00308A000408840A820733
:0A00100000345E340034763400340E
:100A22002A2D8030F00000300A128A116E250A1237
:100A32008A11720884000A128A1103200A128A118A
:100A4200F00001300A128A116E250A128A11013051
:100A5200F207720884000A128A1103200A128A110C
:100A6200003A031D352D362D122D08008312031373
:100A7200071187110712871272037304031D422D97
:100A8200432D442D8716023072067304031D4A2D2E
:100A92004B2D4C2D0716033072067304031D522D85
:100AA200532D542D8715043072067304031D5A2DDD
:100AB2005B2D5C2D0715C030F00000300A128A1140
:100AC2006E250A128A117208303EF00001300A12B5
:100AD2008A116E250A128A110800F1007118722D0E
:100AE200762D831203130914792D8312031309102F
:100AF200700888008914F401F5010130F407031825
:100B0200F50A0030F5077508803AFF0080307F0251
:100B1200031D8D2D65307402031C902D912D7E2DA9
:100B2200831203138910F401F5010130F40703184D
:100B3200F50A0030F5077508803AFF0080307F0221
:100B4200031DA52D65307402031CA82DA92D962D19
:100B52000800831203138901880187018501FF3090
:100B6200831603138500FF308600870189018801FF
:100B720083160317890188013830F00000300A1209
:100B82008A116E250A128A110C30F00000300A1206
:100B92008A116E250A128A118030F00000300A1282
:100BA2008A116E250A128A1183120313061CDA2D8A
:100BB200DB2D5F2E0130F2000030F3000A128A11A1
:100BC20037250A128A1183120313851CE92DEA2D97
:100BD2000D2E871407100130F2000A128A11112516
:100BE2000A128A110130F2000030F3000A128A114F
:100BF20037250A128A11831203130618012E022EB8
:100C0200FC2D871007100230F2000030F3000A12A8
:100C12008A1137250A128A1183120313051D122E17
:100C2200132E362E871407100130F2000A128A1191
:100C320011250A128A110130F2000030F3000A1263
:100C42008A1137250A128A118312031306182A2ED3
:100C52002B2E252E871007100330F2000030F300F0
:100C62000A128A1137250A128A1183120313851D6B
:100C72003B2E3C2E5F2E871007140130F2000A1221
:100C82008A1111250A128A110130F2000030F30094
:100C92000A128A1137250A128A11831203130618BF
:100CA200532E542E4E2E871007100430F2000030BF
:100CB200F3000A128A1137250A128A1183120313CA
:100CC200861C642E652EE92E0230F2000030F300FD
:100CD2000A128A1137250A128A1183120313051C7C
:100CE200732E742E972E871007140330F2000A1207
:100CF2008A1111250A128A110230F2000030F30023
:100D02000A128A1137250A128A11831203138618CE
:100D12008B2E8C2E862E871007100130F2000030A9
:100D2200F3000A128A1137250A128A118312031359
:100D3200051D9C2E9D2EC02E871407100130F20037
:100D42000A128A1111250A128A110230F2000030A9
:100D5200F3000A128A1137250A128A118312031329
:100D62008618B42EB52EAF2E871007100330F2006E
:100D72000030F3000A128A1137250A128A118312EF
:100D82000313851DC52EC62EE92E871407100130C8
:100D9200F2000A128A1111250A128A110230F20097
:100DA2000030F3000A128A1137250A128A118312BF
:100DB20003138618DD2EDE2ED82E8710071004307E
:100DC200F2000030F3000A128A1137250A128A1142
:100DD20083120313061DEE2EEF2E682F051CF22E32
:100DE200F32E162F871007140330F2000A128A110D
:100DF20011250A128A110330F2000030F3000A12A0
:100E02008A1137250A128A118312031306190A2F2F
:100E12000B2F052F871007100130F2000030F3006E
:100E22000A128A1137250A128A1183120313851CAA
:100E32001B2F1C2F3F2F871007140330F2000A12BA
:100E42008A1111250A128A110330F2000030F300D0
:100E52000A128A1137250A128A11831203130619FC
:100E6200332F342F2E2F871007100230F20000305C
:100E7200F3000A128A1137250A128A118312031308
:100E8200851D442F452F682F871407100130F2006B
:100E92000A128A1111250A128A110330F200003057
:100EA200F3000A128A1137250A128A1183120313D8
:100EB20006195C2F5D2F572F871007100430F200A0
:100EC2000030F3000A128A1137250A128A1183129E
:100ED2000313861D6D2F6E2FF22F0430F2000030A7
:100EE200F3000A128A1137250A128A118312031398
:100EF200051C7C2F7D2FA02F871007140330F200D2
:100F02000A128A1111250A128A110430F2000030E5
:100F1200F3000A128A1137250A128A118312031367
:100F22008619942F952F8F2F871007100130F2000A
:100F32000030F3000A128A1137250A128A1183122D
:100F42000313851CA52FA62FC92F87100714033062
:100F5200F2000A128A1111250A128A110430F200D3
:100F62000030F3000A128A1137250A128A118312FD
:100F720003138619BD2FBE2FB82F8710071002301A
:100F8200F2000030F3000A128A1137250A128A1180
:100F920083120313051DCE2FCF2FF22F87100714B4
:100FA2000330F2000A128A1111250A128A11043042
:100FB200F2000030F3000A128A1137250A128A1150
:100FC200831203138619E62FE72FE12F87100710EC
:100FD2000330F2000030F3000A128A1137250A1298
:100FE2008A118312031387100710D52D0A128A1152
:0E0FF2000028F401F50183010A128A11AA2DCC
:08400000FF3FFF3FFF3FFF3FC0
:04400E00E42CFF3F60
:00000001FF
