:060000000A128A11FC2F18
:100C4400F000831203130C1E282E292E232E700865
:100C540099000800243083160313980090308312FF
:100C64000313980019308316031399000800013008
:100C7400831203139F000330F3009730F200F20B4A
:100C8400412EF30B412E462E831203139F149F18FB
:100C94004C2E4D2E492E1E08F100831603131E08F8
:100CA400F00008000030FC000030FB000030FA00C7
:100CB4000030F900701C5F2E602E772E7408F9073F
:100CC400750803110318013E0319692EFA07760803
:100CD40003110318013E0319702EFB077708031153
:100CE4000318013E0319772EFC070130F8000310A6
:100CF400F40DF50DF60DF70DF80B792E01300310F8
:100D0400F30CF20CF10CF00CFF3E031D812E730862
:100D1400720471047004031D902E912E5C2E7C08C5
:100D2400F3007B08F2007A08F1007908F00008006B
:100D3400013083160317880089011F3083160313BB
:100D440085000713871780309F000A128A112C260A
:100D54000A128A1183120313B201851CB22EB32E18
:100D6400B42EB214051DB72EB82EB92E3215851D1A
:100D7400BC2EBD2EBE2EB215051EC12EC22EC32EF4
:100D840032160A128A1139260A128A11710883123C
:100D94000313B0007008AF003008A7002F08A600A6
:100DA4000A128A11FA260A128A1183120313B10055
:100DB40032080A128A1122260A128A118312031394
:100DC40031080A128A1122260A128A110330831268
:100DD4000313AE008A30AD005530AC00AC0BF02EDE
:100DE400AD0BF02EAE0BF02EAC2E0A128A11002899
:100DF400831203132708803AFF0080307F02031D0B
:100E0400052F013026020318082F092F0B2F00305D
:100E14005E2F831203132708803AFF0083307F027A
:100E2400031D162FFE302602031C192F1A2F1C2F08
:100E340064305E2F831203132608F0002708F100A4
:100E44000030F11BFF30F200F3000030F7000030F7
:100E5400F6000030F5006430F4000A128A115426BA
:100E64000A128A11730883120313AB007208AA00D2
:100E74007108A9007008A8000030F3000030F200E7
:100E84000330F100FE30F0002B08F7002A08F600CA
:100E94002908F5002808F4000A128A115F270A12AB
:100EA4008A11730883120313AB007208AA00710835
:100EB400A9007008A8002808080083120313A101E0
:100EC400F31F652F662F732FF009F109F209F30957
:100ED400F00A0319F10A0319F20A0319F30AA1012A
:100EE400A10AF71F762F772F862FF409F509F60943
:100EF400F709F40A0319F50A0319F60A0319F70A9C
:100F04000130F8007808A1060030A5000030A400E4
:100F14000030A3000030A20073087204710470044E
:100F24000319952F962FE32FA001A00AA62F0130B5
:100F3400F8000310F00DF10DF20DF30DF80B9B2FDB
:100F44000130F8007808A007F31FA92FAA2F992FC2
:100F54000130F8000310A20DA30DA40DA50DF80B8C
:100F6400AC2F73087702031DC12F72087602031D8C
:100F7400C12F71087502031DC12F70087402031C70
:100F8400C42FC52FD42F7008F4027108031C710FED
:100F9400F5027208031C720FF6027308031C730F28
:100FA400F702221401300310F30CF20CF10CF00CD4
:100FB400FF3E031DD52F0130A002031DE22FE32FB6
:100FC400AA2F21080319E72FE82FF32FA209A30959
:100FD400A409A509A20A0319A30A0319A40A031957
:100FE400A50A2508F3002408F2002308F1002208CA
:0C0FF400F000080083010A128A119A2EF6
:08400000FF3FFF3FFF3FFF3FC0
:04400E00E423FF3F69
:00000001FF
