:100000000A128A11F02F00308A000408840A82073D
:1000100000344334413452342034523455344E3455
:10002000203420342034203420340034433441340C
:1000300052342034533454344F3450342034203428
:100040002034203400344234413443344B3420349F
:100050004C34453446345434203420340034413454
:100060004C344C34203443344C344F3453344534C2
:10007000443420340034463452344F344E345434F3
:1000800020344C3445344634543420340034423423
:10009000413443344B3420345234493447344834A7
:1000A000543420340034463452344F344E345434B3
:0E00B000203452344934473448345434003438
:100AE800831203138C1E792D7A2D742D1A08080091
:100AF8002430831603139800903083120313980050
:100B080019308316031399000800F000143070029E
:100B180003188F2D902D942D831203138516972D6E
:100B28008312031385120800F2007208831203135C
:100B38008800091089140330F1009730F000F00B99
:100B4800A32DF10BA32DA82D8312031389100330B5
:100B5800F1009730F000F00BAF2DF10BAF2DB42D55
:100B68000800F2007208831203138800091489141C
:100B78000330F1009730F000F00BC02DF10BC02DC1
:100B8800C52D8312031389100330F1009730F0004C
:100B9800F00BCC2DF10BCC2DD12D0800F400E42D59
:100BA800740884000A128A1103200A128A110A1290
:100BB8008A11B5250A128A110130F3007308F40767
:100BC800740884000A128A1103200A128A11003A52
:100BD800031DEF2DF02DD42D08001A30F400F83045
:100BE800F300F30BF52DF40BF52D000038300A1245
:100BF8008A1198250A128A110C300A128A1198252E
:100C08000A128A1106300A128A1198250A128A11C4
:100C180001300A128A1198250A128A110800F70071
:100C2800C0300A128A1198250A128A111E307705D7
:100C3800F6001E307606031D222E232E302E01309C
:100C48000A128A11D2250A128A1177080A128A1101
:100C58003D260A128A113C2E0E300A128A11D2251C
:100C68000A128A1177080A128A113D260A128A1175
:100C78000800F50086300A128A1198250A128A118E
:100C8800F518472E482E4F2E33300A128A11D225D6
:100C98000A128A11762E7519522E532E5A2E4B305F
:100CA8000A128A11D2250A128A11762EF5195D2E9A
:100CB8005E2E652E1B300A128A11D2250A128A115D
:100CC800762E751A682E692E702E3F300A128A11F8
:100CD800D2250A128A11762E27300A128A11D225B5
:100CE8000A128A11080083160317880189018316DE
:100CF8000313850188018901071387170A128A11CE
:100D0800F1250A128A110A128A117C250A128A11FF
:100D18000A128A1174250A128A1183120313A90070
:100D28000A128A1174250A128A1183120313A80061
:100D380029080A128A1113260A128A118312031328
:100D480028080A128A1178270A128A1183120313B3
:100D580028080A128A1189250A128A118C2E0A1269
:100D68008A110028F601F31FBA2EBB2EC22EF209F3
:100D7800F309F20A0319F30AF601F60AF11FC52E60
:100D8800C62ECB2EF009F109F00A0319F10A7008F2
:100D980071040319D02ED12E002FF501F50ADF2E8C
:100DA80001300310F00DF10DFF3E031DD52E01306B
:100DB800F4007408F507F11FE22EE32ED42E710813
:100DC8007302031DE92E70087202031CEC2EED2E2F
:100DD800F32E7008F2027108031CF303F3020130CA
:100DE8000310F10CF00CFF3E031DF42E0130F50248
:100DF800031DFF2E002FE32E76080319042F052F5D
:100E08000A2FF209F309F20A0319F30A7308F10029
:100E18007208F000080083120313AB01F81F152FA6
:100E2800162F1D2FF709F809F70A0319F80AAB015D
:100E3800AB0AFA1F202F212F2A2FF909FA09F90ADC
:100E48000319FA0A0130FB007B08AB06AC01AD01BF
:100E5800770878040319312F322F692FAA01AA0ABB
:100E6800402F01300310F70DF80DFF3E031D362FFC
:100E78000130FB007B08AA07F81F432F442F352FAA
:100E880001300310AC0DAD0DFF3E031D452F780852
:100E98007A02031D512F77087902031C542F552F0E
:100EA8005C2F7708F9027808031CFA03FA022C145D
:100EB80001300310F80CF70CFF3E031D5D2F0130C5
:100EC800AA02031D682F692F442F2B0803196D2FC1
:100ED8006E2F732FAC09AD09AC0A0319AD0A2D08A2
:100EE800F8002C08F700080083120313AE002E0840
:100EF800FC00FD017C08A6007D08A7006430F7000F
:100F08000030F8002708FA002608F9000A128A11AA
:100F18000F270A128A11780883120313A50077088D
:100F2800A4000A30F7000030F8002708F30026086C
:100F3800F2006430F0000030F1000A128A11B6267F
:100F48000A128A117108FA007008F9000A128A1147
:100F58000F270A128A11780883120313A30077084F
:100F6800A2000A30F0000030F1002708F30026083C
:100F7800F2000A128A11B6260A128A11710883121F
:100F88000313A1007008A00080300A128A11982566
:100F98000A128A11831203132408303E0A128A1196
:100FA800B5250A128A11831203132208303E0A1249
:100FB8008A11B5250A128A11831203132008303EBC
:100FC8000A128A11B5250A128A1125300A128A11C5
:100FD800B5250A128A11080083120313A001A10182
:100FE800A201A301A401A501A601A701A801A901C5
:080FF80083010A128A11772E11
:08400000FF3FFF3FFF3FFF3FC0
:04400E00E423FF3F69
:00000001FF
