:060000000A128A11122809
:10000800FE00030E83120313A0000408A1000A08CF
:10001800A2007F08A3000A128A1133280A128A1143
:1000280015280A128A11B4250A128A11FC000A122C
:100038008A11B5250A128A11FD00B001B101B20179
:10004800B301B401B501B601B701B801B901BA01EC
:10005800BB01BC01BD0183010A128A11D3298C1C82
:100068003628372898280130B8070318B90A00300D
:10007800B9070130B0070318B10A0030B1078C1076
:1000880091013108803AFF0080307F02031D4E281D
:100098007D303002031C5128522864288312031330
:1000A8003108803AFF0080307F02031D5D2801304F
:1000B8003002031860286128642883120313071587
:1000C800831203133108803AFF0080307F02031D3A
:1000D8006F287E303002031C72287328852883120B
:1000E80003133108803AFF0080307F02031D7E2809
:1000F800FB303002031881288228852883120313D5
:100108000711831203133108803AFF0081307F0200
:10011800031D902800303002031C93289428982847
:1001280083120313B001B1018312031332033304A2
:10013800031D9F28A028C6297D08803AFF0080302B
:100148007F02031DA92801307C02031CAC28AD28BE
:10015800C6297D08FB007C08FA000A128A111E25B0
:100168000A128A11831203133908803AFF0080307B
:100178007F02031DC1287D303802031CC428C5280E
:10018800CF28FF30FC070318FD0AFF30FD07831254
:100198000313B801B9017D08803AFF0080307F025F
:1001A800031DD82806307C02031CDB28DC28102914
:1001B8007D08803AFF0080307F02031DE52810305B
:1001C8007C02031CE828E92810297D08803AFF00F2
:1001D80080307F02031DF2281A307C02031CF528A8
:1001E800F62810297D08803AFF0080307F02031D21
:1001F800FF2824307C02031C0229032910297D08CA
:10020800803AFF0080307F02031D0C292E307C02CB
:1002180003180F2910293F29FD1F132914293B29E9
:100228007D08803AFF0080307F02031D1D291F30A2
:100238007C020318202921293B297D08803AFF00E8
:1002480080307F02031D2A2915307C0203182D29CE
:100258002E293B297D08803AFF0080307F02031D4C
:1002680037290B307C02031C3A293B293F2983128A
:100278000313071487107D08803AFF0080307F023F
:10028800031D48290B307C02031C4B294C29732978
:100298007D08803AFF0080307F02031D5529153004
:1002A8007C02031C5829592973297D08803AFF00CC
:1002B80080307F02031D62291F307C02031C6529E0
:1002C800662973297D08803AFF0080307F02031D6C
:1002D8006F2929307C02031872297329AB297D08FC
:1002E800803AFF0080307F02031D7C2906307C02A3
:1002F80003187F298029A7297D08803AFF008030CC
:100308007F02031D892910307C0203188C298D294E
:10031800A7297D08803AFF0080307F02031D9629B7
:100328001A307C02031899299A29A7297D08803A4E
:10033800FF0080307F02031DA32924307C02031CA8
:10034800A629A729AB2983120313871407107C0851
:100358007D04031DB029B129C629C030F80000303A
:100368000A128A119B240A128A111830FA000A12FA
:100378008A1196250A128A1183120313871007100F
:10038800B201B301831203132308FF0022088A0075
:1003980021088400200E8300FE0E7E0E09008316BD
:1003A8000313870183120313870183160317890137
:1003B80088018316031389018801831203138901B5
:1003C80088018601FF3083160313860038308312B4
:1003D8000313AC0000300A128A1155240A128A113C
:1003E8000E3083120313AC0000300A128A11552410
:1003F8000A128A11803083120313AC0000300A12EB
:100408008A1155240A128A11831603138C148C1826
:100418000E2A102A0B17112A0B130B1B142A162A43
:100428008B17172A8B137F308312031392009101C5
:100438007D30831603139200803083120313AC00BF
:1004480000300A128A1155240A128A1110308312B8
:100458000313AE000A128A1153250A128A11831255
:100468000313061C382A392A652A0530B6070318EB
:10047800B70A0030B7073708803AFF0080307F029C
:10048800031D482A14303602031C4B2A4C2A502AD2
:1004980083120313B601B701831203133708FD0053
:1004A8003608FC007D08AF007C08AE000A128A11ED
:1004B800DF240A128A11831203130618642A652A94
:1004C8005F2A861C682A692A802A36080A3EFC00A8
:1004D80037080318013E003EFD007D08AF007C0888
:1004E800AE000A128A11DF240A128A11831203133A
:1004F80086187F2A802A7A2A061D832A842A9B2A1C
:100508003608143EFC0037080318013E003EFD0083
:100518007D08AF007C08AE000A128A11DF240A1297
:100528008A118312031306199A2A9B2A952A861D73
:100538009E2A9F2AB62A36081E3EFC003708031852
:10054800013E003EFD007D08AF007C08AE000A12A7
:100558008A11DF240A128A11831203138619B52A15
:10056800B62AB02A061EB92ABA2ABE2A0130B20013
:100578000030B300861EC12AC22A332A8030AC005C
:1005880000300A128A1155240A128A110130831286
:100598000313AE000A128A1153250A128A11831214
:1005A8000313861AD82AD92AD32A332A0A128A1177
:1005B800122883120313A901A51FE32AE42AEB2AB0
:1005C800A409A509A40A0319A50A0130A900A71FAF
:1005D800EE2AEF2AF62AA609A709A60A0319A70AE6
:1005E8000130A906AA01AB01240825040319FD2A34
:1005F800FE2A332B0130A8000A2B01300310A40D6A
:10060800A50DFF3E031D022B0130A807A51F0D2BCA
:100618000E2B012B01300310AA0DAB0DFF3E031D5D
:100628000F2B25082702031D1B2B24082602031C59
:100638001E2B1F2B262B2408A6022508031CA70304
:10064800A7022A1401300310A50CA40CFF3E031DB9
:10065800272B0130A802031D322B332B0E2B290820
:100668000319372B382B3D2BAA09AB09AA0A031902
:10067800AB0A2B08A5002A08A4000800F501F11F01
:10068800462B472B4E2BF009F109F00A0319F10A02
:100698000130F500F31F512B522B592BF209F309A6
:1006A800F20A0319F30A0130F506F601F70170089A
:1006B80071040319602B612B962B0130F4006D2B0C
:1006C80001300310F00DF10DFF3E031D652B0130C5
:1006D800F407F11F702B712B642B01300310F60DFA
:1006E800F70DFF3E031D722B71087302031D7E2B4D
:1006F80070087202031C812B822B892B7008F2026E
:100708007108031CF303F302761401300310F10C93
:10071800F00CFF3E031D8A2B0130F402031D952BBC
:10072800962B712B750803199A2B9B2BA02BF60976
:10073800F709F60A0319F70A7708F1007608F000B6
:10074800080083120313A901A71FAB2BAC2BB32BF3
:10075800A609A709A60A0319A70A0130A900A51F17
:10076800B62BB72BBC2BA409A509A40A0319A50A03
:10077800240825040319C12BC22BEF2B0130A80034
:10078800CE2B01300310A40DA50DFF3E031DC62B73
:100798000130A807A51FD12BD22BC52B250827026E
:1007A800031DD82B24082602031CDB2BDC2BE22B91
:1007B8002408A6022508031CA703A702013003107A
:1007C800A50CA40CFF3E031DE32B0130A802031D5A
:1007D800EE2BEF2BD22B29080319F32BF42BF92B33
:1007E800A609A709A60A0319A70A2708A500260823
:1007F800A4000800F501F31F022C032C0A2CF209AF
:10080800F309F20A0319F30A0130F500F11F0D2C60
:100818000E2C132CF009F109F00A0319F10A7008DB
:1008280071040319182C192C462C0130F400252CBE
:1008380001300310F00DF10DFF3E031D1D2C01309A
:10084800F407F11F282C292C1C2C71087302031D96
:100858002F2C70087202031C322C332C392C700890
:10086800F2027108031CF303F30201300310F10CC8
:10087800F00CFF3E031D3A2C0130F402031D452CF9
:10088800462C292C750803194A2C4B2C502CF2099C
:10089800F309F20A0319F30A7308F1007208F00069
:1008A800080083120313AD002D185B2C5F2C8312F4
:1008B80003130914622C8312031309102C088800EF
:1008C8008914BC01BD013D08803AFF0080307F02D9
:1008D800031D702C65303C02031C732C742C752C82
:1008E8007E2C013083120313BC070318BD0A0030A5
:1008F800BD07672C831203138910BC01BD013D0895
:10090800803AFF0080307F02031D8C2C65303C024A
:10091800031C8F2C902C912C9A2C013083120313DA
:10092800BC070318BD0A0030BD07832C0800F90076
:1009380079189F2CA32C831203130914A62C831255
:1009480003130910780888008914BC01BD013D080B
:10095800803AFF0080307F02031DB42C65303C02D2
:10096800031CB72CB82CB92CC22C013083120313EA
:10097800BC070318BD0A0030BD07AB2C8312031354
:100988008910BC01BD013D08803AFF0080307F021C
:10099800031DD02C65303C02031CD32CD42CD52C41
:1009A800DE2C013083120313BC070318BD0A003084
:1009B800BD07C72C0800C03083120313AC000030F9
:1009C8000A128A1155240A128A110A308312031353
:1009D800A4000030A5002F08A7002E08A6000A12C0
:1009E8008A11DD220A128A11831203132408303E69
:1009F800AC0001300A128A1155240A128A110A30F1
:100A080083120313A4000030A5002F08A7002E08A6
:100A1800A6000A128A11A5230A128A118312031347
:100A28002408303EAC0001300A128A1155240A12FB
:100A38008A110800C030F80000300A128A119B247D
:100A48000A128A110A30F0000030F1007B08F30026
:100A58007A08F2000A128A1142230A128A117008CF
:100A6800303EF80001300A128A119B240A128A11BA
:100A78000A30F0000030F1007B08F3007A08F20039
:100A88000A128A11FE230A128A117008303EF800F1
:100A980001300A128A119B240A128A110800662D55
:100AA8002E0884000A128A1175250A128A11AC00D0
:100AB80001300A128A1155240A128A110130831250
:100AC8000313AE07831203132E0884000A128A1137
:100AD80075250A128A11003A031D732D742D542DA1
:100AE800080005308A000408840A82070034453467
:100AF8004D3445345234473445344E3443345934F4
:100B08002034533454344F3450340034573445343B
:100B18004C3443344F344D344534003445344E342A
:100B280044340034A72D7A0884000A128A117525E6
:100B38000A128A11F80001300A128A119B240A123B
:100B48008A110130FA077A0884000A128A11752579
:100B58000A128A11003A031DB22DB32D972D0800F1
:040B68000134003420
:08400000FF3FFF3FFF3FFF3FC0
:04400E00E42CFF3F60
:00000001FF
